{
  "contractName": "socialDapp",
  "abi": [
    {
      "inputs": [],
      "stateMutability": "nonpayable",
      "type": "constructor"
    },
    {
      "anonymous": false,
      "inputs": [
        {
          "indexed": false,
          "internalType": "uint256",
          "name": "id",
          "type": "uint256"
        },
        {
          "indexed": false,
          "internalType": "string",
          "name": "hash",
          "type": "string"
        },
        {
          "indexed": false,
          "internalType": "string",
          "name": "title",
          "type": "string"
        },
        {
          "indexed": false,
          "internalType": "address",
          "name": "author",
          "type": "address"
        }
      ],
      "name": "Uploaded",
      "type": "event"
    },
    {
      "inputs": [],
      "name": "counter",
      "outputs": [
        {
          "internalType": "uint256",
          "name": "",
          "type": "uint256"
        }
      ],
      "stateMutability": "view",
      "type": "function",
      "constant": true
    },
    {
      "inputs": [
        {
          "internalType": "uint256",
          "name": "",
          "type": "uint256"
        }
      ],
      "name": "images",
      "outputs": [
        {
          "internalType": "uint256",
          "name": "id",
          "type": "uint256"
        },
        {
          "internalType": "string",
          "name": "hash",
          "type": "string"
        },
        {
          "internalType": "string",
          "name": "title",
          "type": "string"
        },
        {
          "internalType": "address",
          "name": "author",
          "type": "address"
        }
      ],
      "stateMutability": "view",
      "type": "function",
      "constant": true
    },
    {
      "inputs": [
        {
          "internalType": "string",
          "name": "_iHash",
          "type": "string"
        },
        {
          "internalType": "string",
          "name": "_iTitle",
          "type": "string"
        }
      ],
      "name": "uploadImage",
      "outputs": [],
      "stateMutability": "nonpayable",
      "type": "function"
    }
  ],
  "bytecode": "0x60806040526000805534801561001457600080fd5b50610a9b806100246000396000f3fe608060405234801561001057600080fd5b50600436106100415760003560e01c806361bc221a146100465780638485648214610064578063a91b831414610097575b600080fd5b61004e6100b3565b60405161005b91906103ae565b60405180910390f35b61007e60048036038101906100799190610409565b6100b9565b60405161008e9493929190610510565b60405180910390f35b6100b160048036038101906100ac9190610698565b610219565b005b60005481565b60016020528060005260406000206000915090508060000154908060010180546100e29061073f565b80601f016020809104026020016040519081016040528092919081815260200182805461010e9061073f565b801561015b5780601f106101305761010080835404028352916020019161015b565b820191906000526020600020905b81548152906001019060200180831161013e57829003601f168201915b5050505050908060020180546101709061073f565b80601f016020809104026020016040519081016040528092919081815260200182805461019c9061073f565b80156101e95780601f106101be576101008083540402835291602001916101e9565b820191906000526020600020905b8154815290600101906020018083116101cc57829003601f168201915b5050505050908060030160009054906101000a900473ffffffffffffffffffffffffffffffffffffffff16905084565b600082511161022757600080fd5b600081511161023557600080fd5b600073ffffffffffffffffffffffffffffffffffffffff163373ffffffffffffffffffffffffffffffffffffffff160361026e57600080fd5b6000808154809291906102809061079f565b9190505550604051806080016040528060005481526020018381526020018281526020013373ffffffffffffffffffffffffffffffffffffffff1681525060016000805481526020019081526020016000206000820151816000015560208201518160010190816102f19190610993565b5060408201518160020190816103079190610993565b5060608201518160030160006101000a81548173ffffffffffffffffffffffffffffffffffffffff021916908373ffffffffffffffffffffffffffffffffffffffff1602179055509050507f1afa23bf7679ac1f14dc1b3474878a270af0258352da620da7fc18ed79092dc06000548383336040516103899493929190610510565b60405180910390a15050565b6000819050919050565b6103a881610395565b82525050565b60006020820190506103c3600083018461039f565b92915050565b6000604051905090565b600080fd5b600080fd5b6103e681610395565b81146103f157600080fd5b50565b600081359050610403816103dd565b92915050565b60006020828403121561041f5761041e6103d3565b5b600061042d848285016103f4565b91505092915050565b600081519050919050565b600082825260208201905092915050565b60005b83811015610470578082015181840152602081019050610455565b8381111561047f576000848401525b50505050565b6000601f19601f8301169050919050565b60006104a182610436565b6104ab8185610441565b93506104bb818560208601610452565b6104c481610485565b840191505092915050565b600073ffffffffffffffffffffffffffffffffffffffff82169050919050565b60006104fa826104cf565b9050919050565b61050a816104ef565b82525050565b6000608082019050610525600083018761039f565b81810360208301526105378186610496565b9050818103604083015261054b8185610496565b905061055a6060830184610501565b95945050505050565b600080fd5b600080fd5b7f4e487b7100000000000000000000000000000000000000000000000000000000600052604160045260246000fd5b6105a582610485565b810181811067ffffffffffffffff821117156105c4576105c361056d565b5b80604052505050565b60006105d76103c9565b90506105e3828261059c565b919050565b600067ffffffffffffffff8211156106035761060261056d565b5b61060c82610485565b9050602081019050919050565b82818337600083830152505050565b600061063b610636846105e8565b6105cd565b90508281526020810184848401111561065757610656610568565b5b610662848285610619565b509392505050565b600082601f83011261067f5761067e610563565b5b813561068f848260208601610628565b91505092915050565b600080604083850312156106af576106ae6103d3565b5b600083013567ffffffffffffffff8111156106cd576106cc6103d8565b5b6106d98582860161066a565b925050602083013567ffffffffffffffff8111156106fa576106f96103d8565b5b6107068582860161066a565b9150509250929050565b7f4e487b7100000000000000000000000000000000000000000000000000000000600052602260045260246000fd5b6000600282049050600182168061075757607f821691505b60208210810361076a57610769610710565b5b50919050565b7f4e487b7100000000000000000000000000000000000000000000000000000000600052601160045260246000fd5b60006107aa82610395565b91507fffffffffffffffffffffffffffffffffffffffffffffffffffffffffffffffff82036107dc576107db610770565b5b600182019050919050565b60008190508160005260206000209050919050565b60006020601f8301049050919050565b600082821b905092915050565b6000600883026108497fffffffffffffffffffffffffffffffffffffffffffffffffffffffffffffffff8261080c565b610853868361080c565b95508019841693508086168417925050509392505050565b6000819050919050565b600061089061088b61088684610395565b61086b565b610395565b9050919050565b6000819050919050565b6108aa83610875565b6108be6108b682610897565b848454610819565b825550505050565b600090565b6108d36108c6565b6108de8184846108a1565b505050565b5b81811015610902576108f76000826108cb565b6001810190506108e4565b5050565b601f82111561094757610918816107e7565b610921846107fc565b81016020851015610930578190505b61094461093c856107fc565b8301826108e3565b50505b505050565b600082821c905092915050565b600061096a6000198460080261094c565b1980831691505092915050565b60006109838383610959565b9150826002028217905092915050565b61099c82610436565b67ffffffffffffffff8111156109b5576109b461056d565b5b6109bf825461073f565b6109ca828285610906565b600060209050601f8311600181146109fd57600084156109eb578287015190505b6109f58582610977565b865550610a5d565b601f198416610a0b866107e7565b60005b82811015610a3357848901518255600182019150602085019450602081019050610a0e565b86831015610a505784890151610a4c601f891682610959565b8355505b6001600288020188555050505b50505050505056fea2646970667358221220e5a85f306c791e37886e70b85248f02fbbe6166de223a08da9bc55798b340cf264736f6c634300080f0033",
  "immutableReferences": {},
  "source": "pragma solidity ^0.8.0;\n\ncontract socialDapp {\n  uint public counter = 0;\n  mapping(uint => Image) public images;\n\n  struct Image {\n    uint id;\n    string hash;\n    string title;\n    address author;\n  }\n\n  event Uploaded(\n    uint id,\n    string hash,\n    string title,\n    address author\n  );\n\n  constructor() public {\n  }\n\n  function uploadImage(string memory _iHash, string memory _iTitle) public {\n    require(bytes(_iHash).length > 0);\n    require(bytes(_iTitle).length > 0);\n    require(msg.sender!=address(0));\n    counter++;\n    images[counter] = Image(counter, _iHash, _iTitle, msg.sender);\n    emit Uploaded(counter, _iHash, _iTitle, msg.sender);\n  }\n}\n",
  "sourcePath": "/home/ishan/jayati/eagle/polygon/pf/Week-3/socialDapp/src/contracts/DTube.sol",
  "compiler": {
    "name": "solc",
    "version": "0.8.15+commit.e14f2714.Emscripten.clang"
  },
  "schemaVersion": "3.4.8",
  "updatedAt": "2022-07-09T13:28:33.270Z",
  "networkType": "ethereum",
  "devdoc": {
    "kind": "dev",
    "methods": {},
    "version": 1
  },
  "userdoc": {
    "kind": "user",
    "methods": {},
    "version": 1
  }
}